:100000000C9462000C948A000C948A000C948A0070
:100010000C948A000C948A000C948A000C948A0038
:100020000C948A000C948A000C948A000C948A0028
:100030000C948A000C948A000C948A000C948A0018
:100040000C943C050C948A000C940A050C94E4046E
:100050000C948A000C948A000C948A000C948A00F8
:100060000C948A000C948A000000000024002700F1
:100070002A0000000000250028002B0000000000DE
:1000800023002600290004040404040404040202DA
:100090000202020203030303030301020408102007
:1000A0004080010204081020010204081020000012
:1000B0000008000201000003040700000000000027
:1000C0000000450711241FBECFEFD8E0DEBFCDBF33
:1000D00012E0A0E0B1E0E4EFFEE002C005900D9276
:1000E000A039B107D9F723E0A0E9B2E001C01D9221
:1000F000A633B207E1F710E0C2E6D0E004C02197D2
:10010000FE010E947207C136D107C9F70E94860519
:100110000C9478070C940000E9E9F2E0A089B18919
:1001200082E08C93A485B5851C92A685B78580E175
:100130008C93108EA489B58986E08C93A289B389AB
:100140008C9180618C93A289B3898C9188608C9307
:10015000A289B3898C9180688C930288F389E02D01
:1001600080818F7D80830895AF92BF92CF92DF927E
:10017000EF92FF920F931F93CF93DF936C017B015C
:100180008B01040F151FEB015E01AE18BF08C017ED
:10019000D10759F06991D601ED91FC910190F08160
:1001A000E02DC6010995892B79F7C501DF91CF9123
:1001B0001F910F91FF90EF90DF90CF90BF90AF9085
:1001C0000895FC01538D448D252F30E0842F90E05D
:1001D000821B930B541710F0CF9608950197089542
:1001E000FC01918D828D981761F0A28DAE0FBF2F0B
:1001F000B11D5D968C91928D9F5F9F73928F90E061
:1002000008958FEF9FEF0895FC01918D828D9817CF
:1002100031F0828DE80FF11D858D90E008958FEF0C
:100220009FEF0895FC01918D228D892F90E0805CD5
:100230009F4F821B91098F739927089589E992E056
:100240000E94120121E0892B09F420E0822F0895F9
:1002500080E090E0892B29F00E941E0181110C940E
:1002600000000895FC01A48DA80FB92FB11DA35A59
:10027000BF4F2C91848D90E001968F739927848FC6
:10028000A689B7892C93A089B1898C9183708064E9
:100290008C93938D848D981306C00288F389E02D8A
:1002A00080818F7D80830895EF92FF920F931F933B
:1002B000CF93DF93EC0181E0888F9B8D8C8D981319
:1002C0001AC0E889F989808185FF15C09FB7F89425
:1002D000EE89FF896083E889F98980818370806471
:1002E00080839FBF81E090E0DF91CF911F910F91BC
:1002F000FF90EF900895F62E0B8D10E00F5F1F4FCB
:100300000F731127E02E8C8D8E110CC00FB607FCD9
:10031000FACFE889F989808185FFF5CFCE010E9467
:100320003201F1CFEB8DEC0FFD2FF11DE35AFF4FA2
:10033000F0829FB7F8940B8FEA89FB8980818062F5
:10034000CFCFCF93DF93EC01888D8823B9F0AA89B2
:10035000BB89E889F9898C9185FD03C0808186FD80
:100360000DC00FB607FCF7CF8C9185FFF2CF8081CF
:1003700085FFEDCFCE010E943201E9CFDF91CF9111
:10038000089589E992E00E94A101E9E9F2E0A289D9
:10039000B3898C918F7E8C93A289B3898C91877F4E
:1003A0008C93A289B3898C918F778C93A289B3891E
:1003B0008C918F7D8C93828D818F0895833081F015
:1003C00028F4813099F08230A9F008958730A9F09F
:1003D0008830C9F08430B1F4809180008F7D03C0F3
:1003E000809180008F7780938000089584B58F7707
:1003F00084BD089584B58F7DFBCF8091B0008F7749
:100400008093B00008958091B0008F7DF9CFCF9395
:10041000DF93282F30E0F901E255FF4F8491F90175
:10042000E656FF4FD491F901EA57FF4FC491CC2310
:10043000A1F081110E94DE01EC2FF0E0EE0FFF1F12
:10044000E458FF4FA591B491EC91ED2381E090E049
:1004500009F480E0DF91CF91089580E090E0FACF39
:100460001F93CF93DF93282F30E0F901E255FF4F20
:100470008491F901E656FF4FD491F901EA57FF4FF5
:10048000C491CC23A9F0162F81110E94DE01EC2F1C
:10049000F0E0EE0FFF1FEE58FF4FA591B4918FB71C
:1004A000F894EC91111108C0D095DE23DC938FBF36
:1004B000DF91CF911F910895DE2BF8CFCF93DF937B
:1004C00090E0FC01E656FF4F24918A579F4FFC01B4
:1004D00084918823D1F090E0880F991FFC01E8599E
:1004E000FF4FA591B491FC01EE58FF4FC591D491F7
:1004F00061110EC09FB7F8948C91E22FE0958E2386
:100500008C932881E223E8839FBFDF91CF910895E8
:100510008FB7F894EC91E22BEC938FBFF6CF3FB7F7
:10052000F8948091950290919602A0919702B091D3
:10053000980226B5A89B05C02F3F19F00196A11D72
:10054000B11D3FBFBA2FA92F982F8827BC01CD011D
:10055000620F711D811D911D42E0660F771F881F7C
:10056000991F4A95D1F708958F929F92AF92BF92AB
:10057000CF92DF92EF92FF924B015C010E948F02BB
:100580006B017C010E948F026C197D098E099F0905
:10059000683E734081059105A8F321E0821A910815
:1005A000A108B10888EEC80E83E0D81EE11CF11C3A
:1005B00081149104A104B10429F7FF90EF90DF901A
:1005C000CF90BF90AF909F908F90089561E070E0C2
:1005D00080E090E00E94B40261E081E10E9430027C
:1005E00061E070E080E090E00E94B40260E081E1B0
:1005F0000C94300261E070E080E090E00E94B40270
:1006000061E080E10E94300261E070E080E090E013
:100610000E94B40260E080E10C943002EF92FF92FD
:100620000F931F93CF93DF93082FE62E60E080E1B6
:100630000E94300260E082E10E94300260E088E0C7
:100640000E9430020E94FA02D0E0C0E010E0F12CDB
:10065000C8010C2E01C0880F0A94EAF761E087FFF9
:1006600060E082E10E943002C7010C2E01C0880FB9
:100670000A94EAF761E087FF60E088E00E943002B8
:100680000E94FA022196C830D10511F760E082E19C
:100690000E94300260E088E00E9430020E94FA026C
:1006A00060E082E10E94300260E088E00E94300257
:1006B000DF91CF911F910F91FF90EF900C94FA0270
:1006C000AF92BF92CF92DF92EF92FF921F93CF93A0
:1006D000DF93E82EC62E60E080E10E94300260E0E9
:1006E00082E10E94300260E088E00E9430020E94B5
:1006F000FA028DE00E94070210E8019709F010E06D
:10070000D0E0C0E0F12CD12C80E4A82EB12CC701A0
:100710000C2E01C0880F0A94EAF761E087FF60E0C1
:1007200082E10E943002C6010C2E01C0880F0A949B
:10073000EAF761E087FF60E088E00E9430020E94F3
:10074000FA02C730D10569F08DE00E9407020197D7
:1007500041F4C5010C2E02C0959587950A94E2F7E5
:10076000182B2196C830D10591F660E082E10E94F5
:10077000300260E088E00E9430020E94FA0260E0ED
:1007800082E10E94300260E088E00E9430020E9414
:10079000FA02812FDF91CF911F91FF90EF90DF90B0
:1007A000CF90BF90AF900895CF93C82F61E082E1C2
:1007B0000E94300260E088E00E94300260E080E148
:1007C0000E94300260E0809100010E943002CBB9AB
:1007D0008FEF8AB90E94E6021BB81AB8CF9108952C
:1007E000CF93DF93EC0184E00E94D4031BB81AB8C6
:1007F000C130D10551F060E0229709F461E08091A9
:1008000000010E94300260E006C061E080910001BA
:100810000E94300261E080E10E94300260E08BE0E3
:100820000E94300261E070E080E090E00E94B4023B
:10083000C9B161E08BE00E9430028C2FDF91CF9133
:1008400008951F93CF93DF93182FEB0180E40E944C
:10085000D40360E082E10E94300261E088E00E94FF
:10086000300260E080E10E94300260E0809100018F
:100870000E94300261E070E080E090E00E94B402EB
:100880001BB98FEF8AB90E94E6021BB81AB8C130B3
:10089000D10521F0229781F160E001C061E080E1A3
:1008A0000E94300260E0809100010E94300261E00D
:1008B00070E080E090E00E94B40260E08AE00E9474
:1008C000300261E070E080E090E00E94B40261E0FC
:1008D0008AE00E9430028DE00E940702892BD9F342
:1008E00060E080E10E94300260E080910001DF91D1
:1008F000CF911F910C94300260E080E10E943002A1
:1009000061E0D1CFFC0101900020E9F73197AF0100
:10091000481B590BBC0189E992E00C94B400CF93B9
:10092000DF930E948204EC0184E191E00E94820442
:100930008C0F9D1FDF91CF9108950C9482040F932B
:100940001F93CF93DF93CDB7DEB7A1970FB6F8947F
:10095000DEBF0FBECDBF482F50E070E060E019A2AF
:10096000CE0181968A019B010F7011272227332720
:1009700024E076956795579547952A95D1F70A30E3
:100980000CF5005DFC010293CF0141155105610595
:10099000710541F710E000E0EF2B19F00E9482048E
:1009A0008C0184E191E00E948204800F911FA19646
:1009B0000FB6F894DEBF0FBECDBFDF91CF911F9170
:1009C0000F910895095CDECF1F920F920FB60F9220
:1009D00011242F933F934F935F936F937F938F9344
:1009E0009F93AF93BF93EF93FF9389E992E00E94A7
:1009F0003201FF91EF91BF91AF919F918F917F91C4
:100A00006F915F914F913F912F910F900FBE0F907B
:100A10001F9018951F920F920FB60F9211242F93CB
:100A20008F939F93EF93FF93E091A902F091AA0215
:100A30008081E091AF02F091B00282FD1BC09081F5
:100A40008091B2028F5F8F732091B302821741F0C1
:100A5000E091B202F0E0E756FD4F958F8093B2022D
:100A6000FF91EF919F918F912F910F900FBE0F905B
:100A70001F9018958081F4CF1F920F920FB60F929E
:100A800011242F933F938F939F93AF93BF938091A4
:100A9000910290919202A0919302B09194023091B0
:100AA000900223E0230F2D3758F50196A11DB11DAB
:100AB000209390028093910290939202A0939302CC
:100AC000B09394028091950290919602A091970222
:100AD000B09198020196A11DB11D8093950290934B
:100AE0009602A0939702B0939802BF91AF919F9105
:100AF0008F913F912F910F900FBE0F901F901895DF
:100B000026E8230F0296A11DB11DD2CF789484B59B
:100B1000826084BD84B5816084BD85B5826085BDF9
:100B200085B5816085BD80916E00816080936E0087
:100B30001092810080918100826080938100809179
:100B4000810081608093810080918000816080932A
:100B500080008091B10084608093B1008091B000EA
:100B600081608093B00080917A00846080937A00E5
:100B700080917A00826080937A0080917A0081600F
:100B800080937A0080917A00806880937A00109236
:100B9000C1001BB81AB861E08CE00E945E0260E000
:100BA0008DE00E945E0261E08BE00E945E0261E0E7
:100BB0008AE00E945E0261E080E10E945E0261E0E4
:100BC00088E00E945E0261E082E10E945E0261E0D4
:100BD000809101010E945E0261E08EE00E945E024F
:100BE00061E0809100010E945E0261E081E10E946B
:100BF0005E0260E08FE00E945E0261E08FE00E9492
:100C0000300261E08EE00E94300260E08CE00E94E1
:100C100030020E948C0087E191E00E948F0484E7FB
:100C200091E00E948F0487EB91E00E948F048FEC8B
:100C300091E00E949D048FED91E00E948F0483E07B
:100C4000D82ECBE3D1E003E210E090E0E92E90E073
:100C5000F92E86EE91E00E948F040E94C101DAB85D
:100C60001BB88FE00E9407020197D9F364E670E099
:100C700080E090E00E94B4028FE00E940702892B7E
:100C800081F71BB81AB860E0809101010E94300220
:100C900060E082E10E94300260E088E00E94300261
:100CA00060E080E10E94300260E0809100010E94DB
:100CB000300260E08AE00E94300260E08BE00E9437
:100CC000300261E08CE00E943002CE010197F1F722
:100CD00060E08EE00E943002C8010197F1F761E008
:100CE0008BE00E94300261E08AE00E94300261E005
:100CF00070E080E090E00E94B40290E080E00E940A
:100D0000F003A82E81E090E00E94F003B82E82E06C
:100D100090E00E94F003C82E0E948C0085E191E0D3
:100D20000E949D048AE092E00E948F0486E392E094
:100D30000E949D048A2D0E949F0483E492E00E94F9
:100D40009D048B2D0E949F0480E592E00E949D04EB
:100D50008C2D0E949F0485E191E00E949D0480916A
:100D6000C00080648093C00080E292E00E948F0403
:100D70008091C00086FFFCCF0E94C10161E070E05D
:100D80008EED0E94210470E060E08FEF0E9421044C
:100D900062E070E08DEF0E94210490E080E00E940C
:100DA000F003A82E81E090E00E94F003B82E82E0CC
:100DB00090E00E94F003C82E61E08BE00E943002B8
:100DC0000E948C0085E191E00E949D0481E392E005
:100DD0000E949D048A2D0E949F048EE392E00E944F
:100DE0009D048B2D0E949F048BE492E00E949D0441
:100DF0008C2D0E949F0488E592E00E948F0485E17B
:100E000091E00E949D0487E692E00E948F0485E1B4
:100E100091E00E949D041BB81AB861E08EE00E9428
:100E2000300261E070E080E090E00E94B40260E097
:100E30008BE00E94300260E08AE00E94300260E0B5
:100E4000809101010E94300260E082E10E94300244
:100E500060E088E00E94300260E080E10E943002A1
:100E600060E0809100010E94300260E08CE00E940E
:100E70003002E114F10409F4ECCE0E941E01882333
:100E800009F4E7CE0E940000E4CEE9E9F2E0138223
:100E9000128288EE93E0A0E0B0E084839583A6837D
:100EA000B78386E091E09183808385EC90E095871D
:100EB000848784EC90E09787868780EC90E0918B24
:100EC000808B81EC90E0938B828B82EC90E0958B11
:100ED000848B86EC90E0978B868B118E128E138E0E
:100EE000148E0895EE0FFF1F0590F491E02D0994E4
:040EF000F894FFCFA4
:100EF4000913000000005401B400E100A101120133
:100F0400F00004010D0A0048565265736375655379
:100F14006869656C642C20726566206874747073EB
:100F24003A2F2F6D69676874796F686D2E636F6DE2
:100F34002F66696C65732F687672657363756532A5
:100F4400312F48565265736375655F536869656CE4
:100F5400645F7232315F736368656D617469632EB7
:100F6400706E670031325620737570706C792C2066
:100F74004E504E207377697463682C20696E7665D1
:100F8400727465642052535420636F6465206465F1
:100F94007369676E2C207869616F6C61626120747B
:100FA400657374696E67006368616E676564207455
:100FB4006F2031313532303020424155440A0053DC
:100FC400656C6563746564206D6F64653A200041E7
:100FD400544D45474100496E7365727420746172C3
:100FE4006765742041565220616E64207072657387
:100FF4007320627574746F6E2E004578697374691A
:101004006E6720667573652076616C7565733A004A
:101014004275726E696E672066757365732E2E2E27
:101024000052656164204C465553453A2000526590
:1010340061642048465553453A2000526561642056
:1010440045465553453A20004275726E20636F6DD4
:10105400706C6574652E004974206973206E6F7717
:10106400207361666520746F2072656D6F766520EC
:1010740074686520746172676574204156522E004D
:00000001FF
